:0420000024EF10F0C9
:082008004C45442041504147C2
:1020100041444F0D0A004C454420454E43454E4433
:1020200049444F0D0A000900F5520DE0F6CF06F0C5
:10203000F7CF07F0F5509EA8FED7AD6E06C0F6FFAD
:1020400007C0F7FFF0D71200F86AD09E700ED36E6B
:10205000D26A9B6AB886E10EAF6E040EB06EA60E11
:10206000AC6E900EAB6EC150F00BC16E000E0F0146
:102070005B6F5F6F5C6F5D6F5E6F0101886B9A6A6B
:10208000996A986A9EBA30D09EAAFED7AECF05F064
:10209000055030080AE192928992080EF66E200EE1
:1020A000F76E0001C0DF1DD00101055031080AE1C3
:1020B00092928982160EF66E200EF76E0001B3DF43
:1020C00010D0010105503F080CE1928480A405D096
:1020D000310E9EA8FED7AD6E04D0300E9EA8FED75E
:0A20E000AD6E0101D1D7CED7030089
:020000040030CA
:0E00000023C85E3C00D3A1000FC00FE00F40EC
:00000001FF
;PIC18F45K50
;CRC=9D57  CREATED="10-ago.-19 17:02"
